:400000000080002011000000890100008901000008B5044B1A6803F53F5302331A6000F0B5F800BFFA46004010B5054C237833B9044B13B10448AFF300800123237010BDB6
:400040004881FF1F000000002C230000084B10B51BB108480849AFF300800848036803B910BD074B002BFBD0BDE81040184700BF000000002C2300004C81FF1F0881FF1F23
:400080000000000000000000314B1B78002B4FD0D0B52F4C606801F0B7FA27A3D3E9002301F054F901F09EFD60602A4902F0B4F808B100226260264C6068274901F0A4FF5E
:4000C00002F0B4F8254B53F8200001F09DFA1CA3D3E9002301F0ECFA1BA3D3E9002301F0E7FA06460F46A06801F08EFA32463B4601F02CF901F076FDA06001F085FA10A363
:40010000D3E9002301F064FD08B10022A260104CA06800F049FA124901F0C2FE114901F0B7FD02F0A9F8C0B2207300F0B9F9D0BD704700BFAFF300809A9999999999A93F31
:400140006E861BF0F9211940F6743F1D169A103F6481FF1F00204B4600007A440C81FF1F0000F0420000FE4208B500F0D1F9044800F00CFA62B60122024B1A70FBE700BF4D
:40018000890000006481FF1FFEE700BF08B5104E104D16E029686B68AC68002204E051F8040B43F8040B0432A242F8D1E868002203E0002143F8041B04328242F9D11035C5
:4001C000013E002EE6D102F077F8FFF7CDFFFEE7010000005C27000008B5124A124B1A60124A136843F40073136000230AE0032B03D80F4A52F8231000E00E490E4A42F8B6
:40020000231001332F2BF2D90C4B1A780C4B1A70094A0C4B1A6000F0B7F800220A4B1A6008BD00BF0004FA050CED00E014ED00E000000000890100000080FF1FBC760040D9
:400240000481FF1F08ED00E00081FF1FFEE700BFF0B40022174611E050F82760F3B226F0FF0608E001EB420511F812406D78A5550132013BDBB2002BF4D101370D2FEBD9A7
:40028000F0BC70470A4B1B78DBB203F00701094A11701B09013213708022074B1A70012203F67F131A704422A3F225231A707047CF0100496E5800401C51004038B541F297
:4002C0009312244B1A80182202331A70022103F27E23197008214FF040231970032103F5007319701C4B1B78DBB21C490B701C4B1A8042F25122023B1A80002419250CE075
:40030000184B1B7803F0010343EA440404F003044FF4F07000F010F9013D0DB1032CEFD115B90320FFF792FF0F4B4FF480721A8007221A7000220D490A7048200231087080
:400340001A700222033B1A70094A137843F00103137038BD8040004008010049A146004022420040254200400440004006400040A243004008B50A46002101F0CEFF08BDD6
:4003800008B501F0BFFF08BD10B572B66122284B1A70FFF793FF274A137843F00403137000240CE0244963001A1952000A4423445B00C8589188FFF7DDFF0134E4B2082CDF
:4003C000F0D94FF090401D49FFF742FF1C4A137843F0020313701032137843F002031370184C237843F040032370A2F58632513A137843F010031370134814490822FFF746
:40040000BFFF134813490822FFF7BAFF124813490822FFF7B5FF124A137843F008031370FFF730FF0F4821460E22FFF7A9FF10BD00480040E84600403023000038000048F5
:4004400003500140A04300401251004064000048225100406C000048325100407400004822430040B0430040054A137843F0080313701032137843F008031370704700BF19
:40048000A8430040054B1A7802F0FD021A701A7800F0020010431870704700BF2C580040014B1870704700BF835B0040064B1B78C3F3810303F19243063393F83831DBB212
:4004C000024A1370704700BF2C5800400B46004008B5064B1A7802F0F3021A701A7800F00C0010431870FFF7E1FF08BD2C58004008B50023054A1370013213700420FFF707
:40050000E7FF0220FFF7BEFF08BD00BF2C58004008B5074B1B7823B9FFF7EAFF0122044B1A70FFF7A1FF6420FFF7BAFF08BD00BF7481FF1F000000000230800803D000BFB3
:4005400001380046FCD17047EFF3108072B6704780F31088704700BF014B1B681864704708ED00E04001C0B2014B1870704700BF00E400E00122014B1A60704700E100E0AD
:400580000122014B1A60704780E100E010B50446FFF7F6FF2046FFF7DFFF0720FFF7E2FFFFF7E8FF10BD00BF00B51D4A20F00043934283B0014618DDB3F1FF4F04DB01F04A
:4005C00065FB03B05DF804FB694600F02BF800F00300012818D002280ED0D0B10098019900F092F900F10040EBE70021002200F089FD03B05DF804FB00980199012200F090
:4006000081FD00F10040DCE70098019900F07CF9D7E700980199012200F074FDD1E700BFD80F493F2DE9F04FAA4A20F00044944289B007460D4664DDA74A94421CDC0028E3
:40064000A64940F3EB8001F021FBA54B24F00F049C42064664D0A34901F018FB01463046296001F013FB9F4901F010FB01236860184609B0BDE8F08F9B4A944262DDB4F18C
:40068000FF4F46DAE615863EA4EBC654204601F0CDFD01F0B1FB034620461946059301F0F5FA4FF0874101F0FBFB804601F0BEFD01F0A2FB044640462146069401F0E6FA90
:4006C0004FF0874101F0ECFB0021079001F07CFD002800F0C4802046002101F075FD002814BF012302238148022101900091324605A8294600F0CCF9002FC0F2A6800346C8
:4007000003E00022286000234A60184609B0BDE8F08F014601F0BAFA002368602860F4E7734901F0B3FA7349044601F0AFFA01462046296001F0AAFA6E4901F0A7FA0123B8
:400740006860E2E700F054FD6B49804601F0A8FB4FF07C5101F09CFA01F068FD064601F04BFB5E49834601F09BFB0146404601F08DFA5C498146584601F092FB82461F2E54
:400780004846514618DC5D4B721E53F8223024F0FF029A4210D001F079FA8046C5F800804146484601F072FA514601F06FFA002F686056DB3346A8E701F068FAE215C0F383
:4007C000C753D31A082B8046E8DD49495846039201F066FB80464846414601F057FA04464846214601F052FA414601F04FFA80464049584601F054FB414601F047FA824615
:400800002046514601F042FA039AC0F3C753D21A192A804641DC2860A146C1E701F038FA2F4B24F00F049C42064623D02D4901F02FFA01463046296001F028FA294901F0CE
:4008400027FA4FF0FF3368605FE795E80C0002F1004103F10042296043426A6055E7032341E708F1004800F10040C5F80080686073424AE71E4901F00BFA1E49044601F027
:4008800007FA01462046296001F000FA194901F0FFF94FF0FF33686037E71949584601F0FFFA80462046414601F0F0F981462046494601F0EBF9414601F0E8F9044611496F
:4008C000584601F0EDFA214601F0E0F982464846514660E7D80F493FE3CB1640800FC93FD00FC93F43443537800F4943E82300000044353708A3852E84F9223F682300009C
:4009000000A3852E32318D242DE9F84320F00044B4F1485F06460F4649DA01F087FC002800F09D803146304601F0BAFA05464E4901F0B6FA4D4901F0ABF9294601F0B0FAA5
:400940004B4901F0A3F9294601F0AAFA494901F09FF9294601F0A4FA474901F097F9294601F09EFA454901F093F9294601F098FA804628464FF07C5101F092FA41460446A5
:40098000284601F08DFA39460546304601F088FA0146284601F07AF90146204601F076F901464FF07E5001F071F9BDE8F883014601F076FA05462C4901F072FA2B4901F07F
:4009C00067F9294601F06CFA294901F05FF9294601F066FA274901F05BF9294601F060FA254901F053F9294601F05AFA234901F04FF9294601F054FA214B80469C42B8DD90
:400A0000204B9C4227DC04F17F4421464FF07E5001F03CF9814628464FF07C5101F040FA214601F033F941460446284601F038FA39460546304601F033FA0146284601F0C2
:400A400025F90146204601F021F90146484601F01DF9BDE8F883DFF834900B4CDBE74FF07E50BDE8F88300BF4ED747ADF6740F317CF29334010DD037610BB63AABAA2A3DDF
:400A80009999993E0000483F0000903E0000383F2DE9F04F1C46DFB00891611E01910A936899BA4B039053F8213001980793D31E48BF131DDB1023EAE37319460C93DB43DA
:400AC00002EBC3030693079B0D1AC41815D42C44013421AE699F08E057F8250001F08CF90135A54246F8040F07D0002DF4DA01350020A54246F8040FF7D1079B002B2CDB64
:400B0000079B0A9A1946019B01EB0208C2EB827722AA02EB830502EB8808BF0049AE019B002BC0F2F5812C46039B05EB0709A3F1040B4FF0000A54F804095BF8041F01F0B9
:400B4000AFF90146504601F0A3F84C458246F2D10435454546F804AFE1D1079B0EA91D4603F18043013B9B001A1D0A440B440D920B93AB005EA91A460293002D0B4453F819
:400B8000508C20DD4AAFBC180DAE4FF06E51404601F086F901F04AFB01F02EF94FF08741814601F07DF90146404601F06FF801F03DFB54F8041D46F8040F484601F068F872
:400BC000BC428046E1D1069E4046314600F05AFB4FF07851044601F063F900F00DFB4FF0824101F05DF90146204601F04FF8044601F01CFB074601F0FFF80146204601F0AF
:400C000045F8002E8046344640F36A81691E0EAB53F82130C6F1080043FA00F202FA00F69E1B0EA8C4F1070340F8216017441E41002E2FDD002D07F1010740F3F48100225D
:400C400014460DA907E0C3F580700BB108600124013295420BDD51F8043F002CF3D00132C3F1FF0395420B604FF00104F3DC069B002B0DDD012B00F03A81022B08D16A1EC6
:400C80000EAB53F822300EA903F03F0341F82230022E7DD04046002101F096FA002800F09180079B6C1EA3420DDC029B0EAA0D981344002253F8041D834242EA0102F9D102
:400CC000002A40F09981079B0EAA013B52F82330002B40F0A6810B9A012352F8041D01330029FAD0EB181A4609936B1C934241DC0C9A9E180A9B099A05EB030B06F1804699
:400D0000551B699A013E02EB8606AA004FEA8B03049222AA02EB03090593029B4AAA02EB0308002556F8040F01F066F8019B49F8040B002B20DB029A059BAC18EB1822AAE5
:400D4000D718039B4FF0000B1444A3F1040A57F804095AF8041F01F0A3F80146584600F097FFA7428346F2D1049B04359D4248F804BFD7D1099DFCE6049B04354FF0000B59
:400D80009D4248F804BFCDD1F4E700BF0027000041464FF07E5000F079FF8046002C3FF479AF06994FF07E5000F06CFA0146404600F06CFF80460021404601F005FA0028FA
:400DC0007FF46FAF069B40465942029700F05AFA4FF08741044601F015FA002800F087814FF06E51204601F05BF801F01FFA01F003F84FF08741074601F052F80146204678
:400E000000F044FF01F012FA0EAB43F82500384601F00CFA069B6C1C083306930EAB43F8240006994FF07E5000F02CFA002C0746C0F2CB80631C9D0001930EAB03EB050A41
:400E40004AAB03EB05095AF8040D00F0D5FF394601F026F84FF06E5149F8040D384601F01FF80EAB9A450746EDD1083D4AABDDF81CA0DDF804B003EB0509002703960494AB
:400E8000BAF1000FC0F29E80002FC0F29B809C4E4C464FF00008002501E0BD420DDC54F8041F56F8040B00F0FBFF0146404600F0EFFE0135AA458046EFDA5EAB03EB870366
:400EC00001375F45A9F1040943F8A08CD8D1689B039E049C032B58D8DFE803F05D3232A70FD16B1E0EAA52F823603612A0E66A1E0EAB53F822300EA903F07F0341F822304A
:400F0000C6E64FF07C5101F07DF950B90646C1E604354FF0000A454546F804AF7FF4FFAD1BE6002D07F10107C8BF02263FF787AE41464FF07E5000F0A9FE02268046A9E68A
:400F4000019B36AD05EB8308002058F8041D00F09FFEA845F9D1002E41D0089A00F1004301461360369800F091FE002C09DD36AF0125013557F8041F00F08AFEAC42F8DA89
:400F80000EB100F10040089B5860029B03F007005FB0BDE8F08F019B36AA002002EB8308013C58F8041D00F073FE631CF8D10EB100F10040089B1860029B03F007005FB000
:400FC000BDE8F08F4FF0000877E7689B032BDCD8DFE803F0100202870020002EBDD1089B01461860369800F051FE002CBFDC089B5860CAE70020DAE7069A0EAB53F82430F7
:40100000083A02970692002B7FF40BAF0EAB03EB840353F8041D013C083A0029F9D00692FFE601235EE6002421E6002C59DDA5005EAB2B440DF1D80853F8A09C08EB0507E7
:4010400057F804BD4846594600F022FE82465846514600F01BFE0146484600F019FE4745D1467860C7F800A0EAD1012C39DD5EAB2B4453F8A04C08EB05070DF1DC0B57F887
:4010800004AD2146504600F003FE81465046494600F0FCFD214600F0FBFD5F454C467860C7F80090EBD1043508EB0504002038AD54F8041D00F0ECFDAC42F9D1A6B1369AF5
:4010C000379B00F1004002F1004203F10043089C6360029BA06003F0070022605FB0BDE8F08F0020002EEAD1369A379BEFE7204601F09CF80EAB2C4643F8250091E600BFA1
:401100000C2700002DE9F84320F00043B3F1485F04460F46904603DA01F088F8002857D02146204600F0BCFE2146054600F0B8FE29490646284600F0B3FE284900F0A6FDDB
:40114000294600F0ADFE264900F0A2FD294600F0A7FE244900F09AFD294600F0A1FE224900F096FD8146B8F1000F22D038464FF07C5100F095FE49468046304600F090FEBC
:401180000146404600F082FD294600F089FE394600F07CFD15490546304600F081FE0146284600F075FD0146204600F06FFDBDE8F8834946284600F073FE0C4900F066FD51
:4011C000314600F06DFE214600F062FDBDE8F8832046BDE8F88300BFD3C92E2F342FD7321BEF3836010D50398988083CABAA2A3E20F00040704700BF2DE9F04120F0004718
:40120000FC0D7F3C162C054613DC002C80461BDB194F2741074214D0184900F039FD002100F0FAFF68B1002D1BDB28EA0700BDE8F081B7F1FF4F04D3014600F029FDBDE8BE
:40124000F0812846BDE8F0810C4900F021FD002100F0E2FF0028F4D0002D07DB0020BDE8F0814FF4000323419844DEE7002FE8D00348BDE8F08100BFFFFF7F00CAF24971AE
:40128000000080BF30F0004238B50346044615D0B2F1FF4F0ED2B2F5000F0D460FD3D20D2A44FE2A2EDC002A1DDD24F0FF4444EAC25038BD014600F0EBFC38BD38BD4FF0F6
:4012C000984100F0EDFD184A0346954207DBC0F3C7520446193AE3E7144800F02BF8134900F0DEFD38BD12F1160F13DA4CF2503295421946F0DD0E4800F01CF80C4900F0A2
:40130000CFFD38BD19460A4800F014F8084900F0C7FD38BD193224F0FF4040EAC2504FF04C5100F0BDFD38BDB03CFFFF6042A20DCAF2497101F0004120F0004008437047BB
:4013400081F0004102E000BF83F0004330B54FEA41044FEA430594EA050F08BF90EA020F1FBF54EA000C55EA020C7FEA645C7FEA655C00F0E2804FEA5454D4EB5555B8BFC1
:401380006D420CDD2C4480EA020281EA030382EA000083EA010180EA020281EA0303362D88BF30BD11F0004F4FEA01314FF4801C4CEA113102D0404261EB410113F0004FAF
:4013C0004FEA03334CEA133302D0524263EB430394EA050F00F0A780A4F10104D5F1200E0DDB02FA0EFC22FA05F2801841F1000103FA0EF2801843FA05F359410EE0A5F11D
:4014000020050EF1200E012A03FA0EFC28BF4CF0020C43FA05F3C01851EBE37101F0004507D54FF0000EDCF1000C7EEB00006EEB0101B1F5801F1BD3B1F5001F0CD3490836
:401440005FEA30004FEA3C0C04F101044FEA445212F5800F80F09A80BCF1004F08BF5FEA500C50F1000041EB045141EA050130BD5FEA4C0C404141EB010111F4801FA4F1B8
:401480000104E9D191F0000F04BF01460020B1FA81F308BF2033A3F10B03B3F120020CDA0C3208DD02F1140CC2F10C0201FA0CF021FA02F10CE002F11402D8BFC2F1200CC5
:4014C00001FA02F120FA0CFCDCBF41EA0C019040E41AA2BF01EB0451294330BD6FEA04041F3C1CDA0C340EDC04F11404C4F1200220FA04F001FA02F340EA030021FA04F343
:4015000045EA030130BDC4F10C04C4F1200220FA02F001FA04F340EA0300294630BD21FA04F0294630BD94F0000F83F4801306BF81F480110134013D4EE77FEA645C18BFED
:401540007FEA655C29D094EA050F08BF90EA020F05D054EA000C04BF1946104630BD91EA030F1EBF0021002030BD5FEA545C05D14000494128BF41F0004130BD14F58004DC
:401580003CBF01F5801130BD01F0004545F0FE4141F470014FF0000030BD7FEA645C1ABF194610467FEA655C1CBF0B46024650EA013406BF52EA033591EA030F41F4002160
:4015C00030BD00BF90F0000F04BF0021704730B54FF4806404F132044FF000054FF0000150E700BF90F0000F04BF0021704730B54FF4806404F1320410F0004548BF404235
:401600004FF000013EE700BF42004FEAE2014FEA31014FEA02701FBF12F07F4393F07F4F81F06051704792F0000F14BF93F07F4F704730B54FF4607401F0004521F0004156
:4016400020E700BF50EA010208BF704730B54FF000050AE050EA010208BF704730B511F0004502D5404261EB41014FF4806404F132045FEA915C3FF4DCAE4FF003025FEA37
:40168000DC0C18BF03325FEADC0C18BF033202EBDC02C2F1200300FA03FC20FA02F001FA03FE40EA0E0021FA02F11444C1E600BF70B54FF0FF0C4CF4E06C1CEA11541DBF11
:4016C0001CEA135594EA0C0F95EA0C0F00F0DEF82C4481EA030621EA4C5123EA4C5350EA013518BF52EA033541F4801143F4801338D0A0FB02CE4FF00005E1FB02E506F090
:401700000042E0FB03E54FF00006E1FB03569CF0000F18BF4EF0010EA4F1FF04B6F5007F64F5407404D25FEA4E0E6D4146EB060642EAC62141EA55514FEAC52040EA5E505C
:401740004FEACE2EB4F1FD0C88BFBCF5E06F1ED8BEF1004F08BF5FEA500E50F1000041EB045170BD06F0004646EA010140EA020081EA0301B4EB5C04C2BFD4EB0C0541EA6A
:40178000045170BD41F480114FF0000E013C00F3AB8014F1360FDEBF002001F0004170BDC4F10004203C35DA0C341BDC04F11404C4F1200500FA05F320FA04F001FA05F29F
:4017C00040EA020001F0004221F0004110EBD37021FA04F642EB06015EEA430E08BF20EAD37070BDC4F10C04C4F1200500FA04F320FA05F001FA04F240EA020001F00041E9
:4018000010EBD37041F100015EEA430E08BF20EAD37070BDC4F1200500FA05F24EEA020E20FA04F301FA05F243EA020321FA04F001F0004121FA04F220EA020000EBD37089
:401840005EEA430E08BF20EAD37070BD94F0000F0FD101F00046400041EB010111F4801F08BF013CF7D041EA060195F0000F18BF704703F00046520043EB030313F4801F4E
:4018800008BF013DF7D043EA0603704794EA0C0F0CEA135518BF95EA0C0F0CD050EA410618BF52EA4306D1D181EA030101F000414FF0000070BD50EA410606BF10461946A4
:4018C00052EA430619D094EA0C0F02D150EA013613D195EA0C0F05D152EA03361CBF104619460AD181EA030101F0004141F0FE4141F470014FF0000070BD41F0FE4141F4A1
:40190000780170BD70B54FF0FF0C4CF4E06C1CEA11541DBF1CEA135594EA0C0F95EA0C0F00F0A7F8A4EB050481EA030E52EA03354FEA013100F088804FEA03334FF0805521
:4019400045EA131343EA12634FEA022245EA111545EA10654FEA00260EF000419D4208BF964244F1FD0404F5407402D25B084FEA3202B61A65EB03055B084FEA32024FF43C
:4019800080104FF4002CB6EB020E75EB030E22BFB61A754640EA0C005B084FEA3202B6EB020E75EB030E22BFB61A754640EA5C005B084FEA3202B6EB020E75EB030E22BFAD
:4019C000B61A754640EA9C005B084FEA3202B6EB020E75EB030E22BFB61A754640EADC0055EA060E18D04FEA051545EA16754FEA06164FEAC30343EA52734FEAC2025FEA5E
:401A00001C1CC0D111F4801F0BD141EA00014FF000004FF0004CB6E711F4801F04BF01430020B4F1FD0C88BFBCF5E06F3FF6AFAEB5EB030C04BFB6EB020C5FEA500C50F171
:401A4000000041EB045170BD0EF0004E4EEA113114EB5C04C2BFD4EB0C0541EA045170BD41F480114FF0000E013C90E645EA060E8DE60CEA135594EA0C0F08BF95EA0C0FC1
:401A80003FF43BAF94EA0C0F0AD150EA01347FF434AF95EA0C0F7FF425AF104619462CE795EA0C0F06D152EA03353FF4FDAE1046194622E750EA410618BF52EA43067FF456
:401AC000C5AE50EA41047FF40DAF52EA43057FF4EBAE12E74FF0FF3C06E000BF4FF0010C02E000BF4FF0010C4DF804CD4FEA410C7FEA6C5C4FEA430C18BF7FEA6C5C1BD09C
:401B000001B050EA410C0CBF52EA430C91EA030F02BF90EA020F0020704710F1000F91EA030F58BF994208BF90422CBFD8176FEAE37040F0010070474FEA410C7FEA6C5C1A
:401B400002D150EA013C07D14FEA430C7FEA6C5CD6D152EA033CD3D05DF8040B704700BF8446104662468C461946634600E000BF01B5FFF7B7FF002848BF10F1000F01BD4B
:401B80004DF808EDFFF7F4FF0CBF012000205DF808FB00BF4DF808EDFFF7EAFF34BF012000205DF808FB00BF4DF808EDFFF7E0FF94BF012000205DF808FB00BF4DF808ED87
:401BC000FFF7CEFF94BF012000205DF808FB00BF4DF808EDFFF7C4FF34BF012000205DF808FB00BF4FEA4102B2F1E04324BFB3F5001CDCF1FE5C0DD901F0004C4FEAC0020B
:401C00004CEA5070B2F1004F40EB830008BF20F00100704711F0804F21D113F13872BCBF01F00040704741F480114FEA5252C2F11802C2F1200C10FA0CF320FA02F018BF71
:401C400040F001004FEAC1234FEAD32303FA0CFC40EA0C0023FA02F34FEA4303CCE77FEA625307D150EA01331EBF4FF0FE4040F44000704701F0004040F0FE4040F40000AC
:401C8000704700BF80F0004002E000BF81F0004142001FBF5FEA410392EA030F7FEA226C7FEA236C6AD04FEA1262D2EB1363C1BFD218414048404140B8BF5B42192B88BFD4
:401CC000704710F0004F40F4000020F07F4018BF404211F0004F41F4000121F07F4118BF494292EA030F3FD0A2F1010241FA03FC10EB0C00C3F1200301FA03F100F000435C
:401D000002D5494260EB4000B0F5000F13D3B0F1807F06D340084FEA310102F10102FE2A51D2B1F1004F40EBC25008BF20F0010040EA03007047490040EB000010F4000F3E
:401D4000A2F10102EDD1B0FA80FCACF1080CB2EB0C0200FA0CF0AABF00EBC25052421843BCBFD0401843704792F0000F81F4000106BF80F400000132013BB5E74FEA4103DD
:401D80007FEA226C18BF7FEA236C21D092EA030F04D092F0000F08BF0846704790EA010F1CBF0020704712F07F4F04D1400028BF40F00040704712F100723CBF00F5000019
:401DC000704700F0004343F0FE4040F4000070477FEA226216BF08467FEA23630146420206BF5FEA412390EA010F40F4800070474FF0000304E000BF10F0004348BF4042FB
:401E00005FEA000C08BF704743F0964301464FF000001CE050EA010208BF70474FF000030AE000BF50EA010208BF704711F0004302D5404261EB41015FEA010C02BF8446D4
:401E40000146002043F0B64308BFA3F18053A3F50003BCFA8CF2083AA3EBC25310DB01FA02FC634400FA02FCC2F12002BCF1004F20FA02F243EB020008BF20F001007047CC
:401E800002F1200201FA02FCC2F1200250EA4C0021FA02F243EB020008BF20EADC7070474FF0FF0C1CEAD0521EBF1CEAD15392EA0C0F93EA0C0F6FD01A4480EA010C4002A8
:401EC00018BF5FEA41211ED04FF0006343EA501043EA5111A0FB01310CF00040B1F5000F3EBF490041EAD3715B0040EA010062F17F02FD2A1DD8B3F1004F40EBC25008BFD4
:401F000020F00100704790F0000F0CF0004C08BF49024CEA502040EA51207F3AC2BFD2F1FF0340EAC250704740F400004FF00003013A5DDC12F1190FDCBF00F00040704726
:401F4000C2F10002410021FA02F1C2F1200200FA02FC5FEA310040F1000053EA4C0308BF20EADC70704792F0000F00F0004C02BF400010F4000F013AF9D040EA0C0093F0E7
:401F8000000F01F0004C02BF490011F4000F013BF9D041EA0C018FE70CEAD15392EA0C0F18BF93EA0C0F0AD030F0004C18BF31F0004CD8D180EA010000F00040704790F0DF
:401FC000000F17BF90F0004F084691F0000F91F0004F14D092EA0C0F01D142020FD193EA0C0F03D14B0218BF084608D180EA010000F0004040F0FE4040F40000704740F033
:40200000FE4040F4400070474FF0FF0C1CEAD0521EBF1CEAD15392EA0C0F93EA0C0F69D0A2EB030280EA010C49024FEA402037D04FF0805343EA111143EA10130CF0004075
:402040008B4238BF5B0042F17D024FF4000C8B4224BF5B1A40EA0C00B3EB510F24BFA3EB510340EA5C00B3EB910F24BFA3EB910340EA9C00B3EBD10F24BFA3EBD10340EAA6
:40208000DC001B0118BF5FEA1C1CE0D1FD2A3FF650AF8B4240EBC25008BF20F0010070470CF0004C4CEA50207F32C2BFD2F1FF0340EAC250704740F400004FF00003013AA2
:4020C00037E792F0000F00F0004C02BF400010F4000F013AF9D040EA0C0093F0000F01F0004C02BF490011F4000F013BF9D041EA0C0195E70CEAD15392EA0C0F08D1420233
:402100007FF47DAF93EA0C0F7FF470AF084676E793EA0C0F04D14B023FF44CAF08466EE730F0004C18BF31F0004CCAD130F000427FF45CAF31F000437FF43CAF5FE700BFAE
:402140004FF0FF3C06E000BF4FF0010C02E000BF4FF0010C4DF804CD4FEA40024FEA41037FEA226C18BF7FEA236C11D001B052EA530C18BF90EA010F58BFB2EB030088BFA7
:40218000C81738BF6FEAE17018BF40F0010070477FEA226C02D15FEA402C05D17FEA236CE4D15FEA412CE1D05DF8040B704700BF844608466146FFE70FB5FFF7C9FF00284E
:4021C00048BF10F1000F0FBD4DF808EDFFF7F4FF0CBF012000205DF808FB00BF4DF808EDFFF7EAFF34BF012000205DF808FB00BF4DF808EDFFF7E0FF94BF012000205DF85A
:4022000008FB00BF4DF808EDFFF7D2FF94BF012000205DF808FB00BF4DF808EDFFF7C8FF34BF012000205DF808FB00BF4FEA4002B2F1FE4F0FD34FF09E03B3EB12620DD9C9
:402240004FEA002343F0004310F0004F23FA02F018BF404270474FF00000704712F1610F01D1420205D110F0004008BF6FF0004070474FF00000704742000ED2B2F1FE4F64
:402280000BD34FF09E03B3EB126209D44FEA002343F0004323FA02F070474FF00000704712F1610F01D1420202D14FF0FF3070474FF00000704700BF0E4B70B51E460E4C71
:4022C0000025E41AA410A54204D056F8253098470135F8E700F030FA084B094C1E46E41AA4100025A54204D056F8253098470135F8E770BD442700004427000044270000F8
:402300004C27000010B5431E0A44914204D011F8014B03F8014FF8E710BD03460244934202D003F8011BFAE77047000000000000005100401000405100403000C0510040EB
:402340001000F0510040100000000140001000140140000800400140000A004C014000020050014020000000000FC93F000F494000CB9640000FC9400053FB4000CB16412B
:4023800000ED2F41000F49410031624100537B41003A8A4100CB9641005CA34100EDAF41007EBC41000FC94100A0D5410031E24100C2EE410053FB4100F20342003A0A42A5
:4023C0000083104200CB164200141D42005C234200A5294200ED2F4200363642007E3C4200C74242000F4942A2000000F9000000830000006E0000004E0000004400000096
:402400001500000029000000FC0000002700000057000000D1000000F500000034000000DD000000C0000000DB0000006200000095000000990000003C0000004300000063
:402440009000000041000000FE0000005100000063000000AB000000DE000000BB000000C500000061000000B7000000240000006E0000003A000000420000004D0000005D
:40248000D2000000E000000006000000490000002E000000EA00000009000000D1000000920000001C000000FE0000001D000000EB0000001C000000B1000000290000007F
:4024C000A70000003E000000E80000008200000035000000F50000002E000000BB0000004400000084000000E90000009C0000007000000026000000B40000005F00000084
:402500007E000000410000003900000091000000D600000039000000830000005300000039000000F40000009C000000840000005F0000008B000000BD000000F900000040
:40254000280000003B0000001F000000F800000097000000FF000000DE00000005000000980000000F000000EF0000002F000000110000008B0000005A0000000A000000A3
:402580006D0000001F0000006D000000360000007E000000CF00000027000000CB00000009000000B70000004F000000460000003F000000660000009E0000005F000000B6
:4025C000EA0000002D0000007500000027000000BA000000C7000000EB000000E5000000F10000007B0000003D0000000700000039000000F70000008A000000520000001B
:4026000092000000EA0000006B000000FB0000005F000000B10000001F0000008D0000005D0000000800000056000000030000003000000046000000FC0000007B00000051
:402640006B000000AB000000F0000000CF000000BC000000200000009A000000F4000000360000001D000000A9000000E300000091000000610000005E000000E600000006
:402680001B000000080000006500000099000000850000005F00000014000000A000000068000000400000008D000000FF000000D8000000800000004D0000007300000015
:4026C000270000003100000006000000060000001500000056000000CA00000073000000A8000000C900000060000000E20000007B000000C00000008C0000006B000000E9
:402700000400000007000000090000000000C93F0000F0390000DA370000A2330000842E0000502B0000C2270000D0220000C41F0000C61B00004417F8B500BFF8BC08BC63
:402740009E4670474D000000D9010000F8B500BFF8BC08BC9E46704729000000702700000881FF1F4000000030000000000000000000000000008343CD0C8B436666924333
:40278000A4109D4300C0A6436626B0436626BC430080C64333B3D2439A59DE433333EC439A19FE43000005440000DC43000000000000000000000000000000000000000049
:4027C00000000000000000000000000000000000000000000000000000000000000000000000000000000000000000000000000000000000000000000000000000000000D9
:402800000000000000000000000000000000000000000000000000000000000000000000000000000000000000000000000000000000000000000000000000000000000098
:402840000000000000000000000000000000000000000000000000000000000000000000000000000000000000000000000000000000000000000000000000000000000058
:402880000000000000000000000000000000000000000000000000000000000000000000000000000000000000000000000000000000000000000000000000000000000018
:020000040003F7
:0200000480007A
:4000000001150140011B0140024001400141014001420140014301400245014001460140014701400348014004490140014C0140024D014001510140E004E0043280CC1043
:40004000A680A680A6805010D404942094202680A680C82003108310C010E020942080109420000300000000000080000002020002000000010100000000000000000000C1
:400080000000000000000000000000000000000000000000000000000000000000000000000000000000000000000000000000000000000000000000000000000000000040
:4000C0000000000000000000000000000000000000000000000000000000000000000000000000000000000000000000000000000000000000000000000000000000000000
:4001000000000000000000000000000000000000000000000000000000000000000000000000000000000000000000000000000000000000000000000000000000000000BF
:40014000000000000000000000000000000000000000000000000000000000000000000000000000000000000000000000000000000000000000000000000000000000007F
:0200000490006A
:0400000000004005B7
:0200000490105A
:04000000BC90ACAF55
:0200000490303A
:02000000459920
:0200000490402A
:4000000000000000000000000000000000000000000000000000000000000000000000000000000000000000000000000000000000000000000000000000000000000000C0
:400040000000000000000000000000000000000000000000000000000000000000000000000000000000000000000000000000000000000000000000000000000000000080
:400080000000000000000000000000000000000000000000000000000000000000000000000000000000000000000000000000000000000000000000000000000000000040
:4000C0000000000000000000000000000000000000000000000000000000000000000000000000000000000000000000000000000000000000000000000000000000000000
:0200000490501A
:0C00000000012E16106900012E2556028A
:00000001FF